:100000000C9465000C948D000C948D000C948D0064
:100010000C948D000C948D000C947F030C948D0037
:100020000C948D000C948D000C948D000C948D001C
:100030000C948D000C948D000C948D000C948D000C
:100040000C9435030C948D000C948D000C948D0051
:100050000C948D000C948D000C948D000C948D00EC
:100060000C948D000C948D000000000023002600ED
:1000700029000001020304050000000024002700FD
:100080002A0000000000250028002B0004040404BE
:100090000404040402020202020203030303030332
:1000A000010204081020408001020408102001020F
:1000B00004081020000000080002010000030407EB
:1000C0000000000000000000880611241FBECFEFD2
:1000D000D8E0DEBFCDBF21E0A8E0B1E001C01D92B5
:1000E000A634B207E1F711E0A0E0B1E0E0E5F2E10B
:1000F00002C005900D92A830B107D9F710E0C5E60F
:10010000D0E004C02197FE010E94E706C436D10763
:10011000C9F70E9490030C9426090C9400008A31C0
:10012000910538F04697969587959695879501970E
:10013000F1F7089590E0FC01EC54FF4F2491FC018D
:10014000E056FF4F3491FC01E457FF4FE491EE235A
:10015000C9F0222339F0233001F1A8F4213019F13C
:10016000223029F1F0E0EE0FFF1FEE57FF4FA5916F
:10017000B4918FB7F894EC91611126C030953E236D
:100180003C938FBF08952730A9F02830C9F0243060
:1001900049F7809180008F7D03C0809180008F7728
:1001A00080938000DFCF84B58F7784BDDBCF84B5AB
:1001B0008F7DFBCF8091B0008F778093B000D2CF3E
:1001C0008091B0008F7DF9CF3E2BDACFCF93DF93B4
:1001D000C9E1D1E0682F8C810E949A008B8D9C8DA3
:1001E000DF91CF910C948F0081E00C94E600209178
:1001F0001B0130911C0140911D0150911E012417DB
:10020000350721F0682F822F0C949A000895CF9320
:10021000DF9390E0FC01E056FF4F249184579F4FFD
:10022000FC0184918823D1F090E0880F991FFC0194
:10023000E858FF4FA591B491FC01EE57FF4FC591CF
:10024000D49161110EC09FB7F8948C91E22FE09584
:100250008E238C932881E223E8839FBFDF91CF9187
:1002600008958FB7F894EC91E22BEC938FBFF6CF03
:100270003FB7F8948091150190911601A091170154
:10028000B091180126B5A89B05C02F3F19F0019623
:10029000A11DB11D3FBFBA2FA92F982F8827BC01E0
:1002A000CD01620F711D811D911D46E0660F771F04
:1002B000881F991F4A95D1F708958F929F92AF9208
:1002C000BF92CF92DF92EF92FF924B015C010E94AE
:1002D00038016B017C010E9438016C197D098E097F
:1002E0009F09683E734081059105A8F321E0821AB9
:1002F0009108A108B10888EEC80E83E0D81EE11C61
:10030000F11C81149104A104B10429F7FF90EF902E
:10031000DF90CF90BF90AF909F908F9008958EBD4B
:1003200000000DB407FEFDCF8EB50895CF93CFB773
:10033000F89480910901811127C0E6E9F0E08491E9
:10034000EAEAF0E09491E82FF0E0EE0FFF1FE858A2
:10035000FF4FA591B491EC91E92321F461E08AE08B
:100360000E949A0061E08AE00E9407018CB58061DA
:100370008CBD8CB580648CBD61E08DE00E9407016E
:1003800061E08BE00E940701809109018F5F8093FB
:100390000901CFBFCF910895CF93DF9328E030E0DC
:1003A00041E06AE070E0A8E0B0E090913801E091AF
:1003B0003901F0913A01C92FC095582F542341F1CA
:1003C000F89452815C2352835181592B518352817D
:1003D000952B92837894FD013197F1F7440F2150CA
:1003E000310919F7F894E0913901F0913A019181BE
:1003F00080913801809598239183E0913901F091A3
:100400003A019281892382837894DF91CF91089574
:10041000F89452815C2352835181592B5183EB0113
:100420002197F1F75281952B92837894D7CF8091C1
:100430003801E0913901F0913A01F8949181282F27
:1004400020959223918378943DE7315011F190816A
:100450009823D9F3F8949281922392839181982BD7
:1004600091837894A2E7B0E01197F1F7F894918125
:1004700092239183ACE0B0E01197F1F7908198233B
:1004800081E009F080E07894E1E6F0E03197F1F75F
:10049000089580E0089528E030E080E041E0A7E0A2
:1004A000B0E090913801E0913901F0913A01F8946F
:1004B0005181592B51836281792F70956723628313
:1004C00051815723518350817894FD013197F1F781
:1004D000952309F0842B440F2150310911F7089519
:1004E0000F931F9300911F01109120012091210172
:1004F0003091220140E251EA67E070E080E00417A9
:1005000015072607370740F4769567955795479561
:100510008F5F8630A1F787E0982F906A9695809537
:1005200081709CBD8DBD80E01F910F910C94E60001
:10053000CF93C82F0E9470028C2F80620E948F017F
:1005400080932301CF910C94F400CF93DF93D82FA5
:10055000C62F0E9470028D2F80620E948F018093AF
:1005600023018C2F0E948F01DF91CF910C94F40016
:1005700063E083E00E94A50285E080932C0108954A
:1005800060912D0161FD0AC0626060932D0180E0E1
:100590000E94A5028CED94E00197F1F7089580E0A8
:1005A0000E94F700E9E1F1E064896D7F648B80E0EF
:1005B0000E94A50283B7816083BFF894A89584B791
:1005C000877F84BFE0E6F0E080818861808381E2FC
:1005D0008083808180648083789410927A008FEF8A
:1005E00084B98AB987B915B818B880E685BF80E4A0
:1005F00085BF88950895CF93C82F0E9470028C2FD5
:100600000E948F01809323018FEF0E948F01C82FDA
:100610000E94F4008C2FCF9108950F931F93CF93D6
:10062000182FC62F0E947002812F80620E948F01B6
:100630008093230102E011E0C15030F0F801819174
:100640008F010E948F01F8CFCF911F910F910C94D1
:10065000F4000E94700280E50E948F0180932301C4
:1006600083E70E948F010C94F4001F920F920FB643
:100670000F9211242F933F938F939F93AF93BF9328
:100680008091110190911201A0911301B091140178
:100690003091100120E3230F2D3758F54096A11D0E
:1006A000B11D209310018093110190931201A0932A
:1006B0001301B09314018091150190911601A0913E
:1006C0001701B09118010196A11DB11D809315016C
:1006D00090931601A0931701B0931801BF91AF91A9
:1006E0009F918F913F912F910F900FBE0F901F9070
:1006F000189523EB230F4196A11DB11DD2CF1F9258
:100700000F920FB60F9211248F93809101018F5F8A
:10071000809301018F910F900FBE0F901F9018953D
:10072000789484B5826084BD84B5816084BD85B5CC
:10073000826085BD85B5816085BD80916E008160D8
:1007400080936E001092810080918100826080937E
:100750008100809180008160809380008091B10051
:1007600084608093B1008091B00081608093B0007C
:1007700080917A008B7F80937A0080917A008260EA
:1007800080937A0080917A00816080937A008091D2
:100790007A00806880937A001092C10084B78093B9
:1007A0000A0114BE80E88093610083E080936100B9
:1007B0000E9496018CB5837F8CBD8CB58F7D8CBDDE
:1007C0000E94960180911B0190911C018F3F980718
:1007D00009F489C020911D0130911E012F3F32077D
:1007E00009F481C08217930741F061E00E9407017C
:1007F00061E080911D010E94070180E00E94F700E6
:1008000081E00E94E60065E070E080E090E00E94F8
:100810005D016FE584E00E94A50286E00E94FB0274
:1008200045E550E060E070E04093300150933101C5
:100830006093320170933301682F677D86E00E94D8
:10084000A50286E00E94FB028DE10E94FB02C82FF8
:100850000E9429038DE10E94FB0291E0C81390E001
:1008600090932E01882341F0C81302C00E942903EF
:1008700060E08DE10E94A5021092260160E08CE10B
:100880000E94A502109225016FE381E00E94A5025B
:1008900063E082E00E94A50280E280932401C1E12E
:1008A000609124018C2F0E94A502CF5FC731C1F750
:1008B0000E94B8026CE485E00E94A50260E787E030
:1008C0000E94A50282EE0E94980281EE0E94980288
:1008D0006CE080E00E94A50280E00E94FB02809311
:1008E0002D010E94C0026DE785E00E94A50286E00E
:1008F0000E94FB02877D41E450E060E070E040939D
:100900003001509331016093320170933301682FAD
:10091000686086E00E94A50286E00E94FB0286E0F5
:100920000E94FB02682F676086E00E94A50260E0DB
:100930008DE10E94A50260E08CE10E94A502109268
:1009400025011092260185E080932401C1E1609188
:1009500024018C2F0E94A502CF5FC731C1F760E050
:1009600081E00E94A50280912601882351F08DE14B
:100970000E94FB02682F6D6F8DE10E94A50210920C
:10098000260160E084E00E94A5020E94B802609106
:100990002C018AE00E940D0360912C0180E10E94ED
:1009A0000D0360912D01637F686060932D0180E0ED
:1009B0000E94A50280E00E94F70080913001909192
:1009C00031010E948F0080912601882319F081EE69
:1009D0000E94980260912D016E7F60932D0180E04E
:1009E0000E94A50282E00E94FB02E2E7F0E0E491AF
:1009F00061E070E001C0660FEA95EAF7682B82E0DB
:100A00000E94A50283E08093000110927A0080E8A2
:100A100080BF83B7817F846083BF0E94CF0231E2B1
:100A2000932E47E8842E00E010E080910101833D81
:100A300008F456C11092010183B78E7F83BFF894EA
:100A4000A89584B7877F84BF809160008861809378
:100A50006000909260001092600078940E94C00242
:100A600060E080E10E94070161E08FE00E940701E1
:100A700061E08FE00E949A0061E081E10E9407013D
:100A800060E081E10E949A0080927A00579A5F9A12
:100A900081E080930B0180910A01882349F0E0E115
:100AA0008E9FC0011124816080930B0110920A0176
:100AB00061E083E00E949A000E9417026AE070E001
:100AC00080E090E00E945D010E941702C12CD12CB1
:100AD0009EEFE92E92ECF92E882309F45AC08CEC93
:100AE0000E94CC0184E40E94CC0168EC70E080E0BC
:100AF00090E00E945D010E9417028CEC0E94CC01E4
:100B00008EEB0E94CC010E944B02C82F0E944B0228
:100B1000D82F60E083E00E949A00CC7FBE0124E0E1
:100B2000759567952A95E1F7072E000C880B990BB0
:100B30000E9409086B017C0120E030E0A9010E94BD
:100B40005A075E01F8E0AF22BB24C470DD2787FF9F
:100B500079C020E030E040E85FE3C701B6010E94C1
:100B6000ED066B017C01AB2841F020E030E040E075
:100B70005FE30E94ED066B017C01CD2B51F020E07C
:100B800030E040E85EE3C701B6010E94ED066B016C
:100B90007C0120E030E048EC52E4C701B6010E943D
:100BA000B9080E94D107EB018091000120E4829FE7
:100BB000C0011124826080937C0080917A0080645F
:100BC00080937A0080917A0086FDFCCF8091780036
:100BD00060917900762F682F072E000C880B990BF7
:100BE0000E9409082AE939E949E050E40E945F07B8
:100BF0000E94D107D0930C01C0930D0170930E0198
:100C000060930F0180912501C0E0D5E0811107C0FC
:100C1000C0912401DC2FC63008F0D5E0CD1B0E9426
:100C2000700280EA0E948F01809323018BE0E82EFE
:100C300081E0F82ED150F0F0F70181917F010E9400
:100C40008F01F8CFAB2851F020E030E040E05FE3C7
:100C5000C701B6010E94EE066B017C01CD2B09F4A1
:100C600098CF20E030E040E85EE3C701B6010E9483
:100C7000EE068DCFC15020F080E00E948F01FACFA8
:100C80000E94F40081E00E94F7008FB7F894C090B2
:100C90001101D0901201E0901301F09014018FBF68
:100CA0008FEF0E94980280912301807311F52FB776
:100CB000F8948091110190911201A0911301B091CB
:100CC00014012FBF8C199D09AE09BF09803691050B
:100CD000A105B10528F381E080932F0157985F9813
:100CE0000E94CF020115110509F49FCE0E94000059
:100CF0009CCE80E00E94F70060E787E00E94A5029A
:100D00008091230184FFEACF81EE0E949802E6CF12
:100D1000E9E1F1E089E090E0938382838AE090E06A
:100D20009583848380E896E9A8E9B0E08683978379
:100D3000A087B18780E2838781E0848785E0838B09
:100D4000158A85E090E0A0E0B0E0838F948FA58FB6
:100D5000B68F88E091E091838083168660E084E01E
:100D60000E940701E4EAF0E0E491A8E3B1E0EC932B
:100D7000E0E9F0E0E491F0E0EE0FFF1FE859FF4FEB
:100D80008591949112969C938E9311971B961C9229
:100D90001B971D961C921D971C961C921C971A96C9
:100DA0001C921A9719961C92199718961C921897CC
:100DB00017961C92179716961C92169715961C92CA
:100DC000159714961C92149713961C920895EE0F83
:100DD000FF1F0590F491E02D09945058BB27AA27D6
:100DE0000E9405070C947F080E94710838F00E9449
:100DF000780820F039F49F3F19F426F40C946E081B
:100E00000EF4E095E7FB0C946808E92F0E94900827
:100E100058F3BA17620773078407950720F079F42F
:100E2000A6F50C94B2080EF4E0950B2EBA2FA02D67
:100E30000B01B90190010C01CA01A0011124FF2787
:100E4000591B99F0593F50F4503E68F11A16F04082
:100E5000A22F232F342F4427585FF3CF4695379581
:100E60002795A795F0405395C9F77EF41F16BA0B46
:100E7000620B730B840BBAF09150A1F0FF0FBB1FF4
:100E8000661F771F881FC2F70EC0BA0F621F731F3D
:100E9000841F48F4879577956795B795F7959E3F9A
:100EA00008F0B0CF9395880F08F09927EE0F97952B
:100EB000879508950E94440808F481E008950E94EF
:100EC00073070C947F080E94780858F00E947108FC
:100ED00040F029F45F3F29F00C94680851110C94FC
:100EE000B3080C946E080E94900868F39923B1F33C
:100EF000552391F3951B550BBB27AA276217730740
:100F0000840738F09F5F5F4F220F331F441FAA1FD3
:100F1000A9F335D00E2E3AF0E0E832D0915050408F
:100F2000E695001CCAF72BD0FE2F29D0660F771F3D
:100F3000881FBB1F261737074807AB07B0E809F023
:100F4000BB0B802DBF01FF2793585F4F3AF09E3FA8
:100F5000510578F00C9468080C94B3085F3FE4F3F3
:100F6000983ED4F3869577956795B795F7959F5FEB
:100F7000C9F7880F911D9695879597F90895E1E037
:100F8000660F771F881FBB1F621773078407BA0796
:100F900020F0621B730B840BBA0BEE1F88F7E095F1
:100FA00008950E94D8076894B1110C94B30808956D
:100FB0000E94980888F09F5798F0B92F9927B75149
:100FC000B0F0E1F0660F771F881F991F1AF0BA95ED
:100FD000C9F714C0B13091F00E94B208B1E0089591
:100FE0000C94B208672F782F8827B85F39F0B93F83
:100FF000CCF3869577956795B395D9F73EF49095A0
:101000008095709561957F4F8F4F9F4F0895E8941D
:1010100009C097FB3EF490958095709561957F4F40
:101020008F4F9F4F9923A9F0F92F96E9BB279395EE
:10103000F695879577956795B795F111F8CFFAF4FE
:10104000BB0F11F460FF1BC06F5F7F4F8F4F9F4F2F
:1010500016C0882311F096E911C0772321F09EE88D
:10106000872F762F05C0662371F096E8862F70E0F3
:1010700060E02AF09A95660F771F881FDAF7880FCD
:101080009695879597F90895990F0008550FAA0B23
:10109000E0E8FEEF16161706E807F907C0F012168B
:1010A0001306E407F50798F0621B730B840B950B8E
:1010B00039F40A2661F0232B242B252B21F40895E3
:1010C0000A2609F4A140A6958FEF811D811D089580
:1010D00097F99F6780E870E060E008959FEF80ECEB
:1010E000089500240A94161617061806090608958E
:1010F00000240A9412161306140605060895092EF4
:101100000394000C11F4882352F0BB0F40F4BF2B62
:1011100011F460FF04C06F5F7F4F8F4F9F4F0895A2
:1011200057FD9058440F551F59F05F3F71F0479598
:10113000880F97FB991F61F09F3F79F0879508957D
:10114000121613061406551FF2CF4695F1DF08C09C
:10115000161617061806991FF1CF869571056105B9
:1011600008940895E894BB2766277727CB0197F961
:1011700008950E94CC080C947F080E94710838F0F2
:101180000E94780820F0952311F00C9468080C94C4
:101190006E0811240C94B3080E94900870F3959F78
:1011A000C1F3950F50E0551F629FF001729FBB275E
:1011B000F00DB11D639FAA27F00DB11DAA1F649FFA
:1011C0006627B00DA11D661F829F2227B00DA11DAD
:1011D000621F739FB00DA11D621F839FA00D611D33
:1011E000221F749F3327A00D611D231F849F600D54
:1011F000211D822F762F6A2F11249F5750409AF07D
:10120000F1F088234AF0EE0FFF1FBB1F661F771F08
:10121000881F91505040A9F79E3F510580F00C94D3
:1012200068080C94B3085F3FE4F3983ED4F38695C6
:1012300077956795B795F795E7959F5FC1F7FE2B73
:10124000880F911D9695879597F90895F894FFCF8B
:0812500001D2314E6F6465000C
:00000001FF
